S0160000576176652047656E657261746F722E73726563B4
S11300000C942A000C9447000C9447000C9447006D
S11300100C9447000C9447000C9447000C94470040
S11300200C9447000C9447000C9447000C94470030
S11300300C9447000C9451000C9447000C948F00CE
S11300400C9447000C9447000C9447000C94470010
S11300500C94470011241FBECFE5D8E0DEBFCDBF0E
S113006011E0A0E6B0E0E2EAFFE002C005900D92E4
S1130070A43AB107D9F721E0A4EAB1E001C01D9286
S1130080AC3CB207E1F70E9449000C94CF070C94F2
S113009000000E94970478948FEF87BB0E94DB04D2
S11300A0FDCF1F920F920FB60F9211242F933F93FF
S11300B04F935F938F939F93EF93FF93F8948CB137
S11300C04091A4015091A5012091A6013091A7016E
S11300D042175307B0F48032A1F02091A40130916B
S11300E0A501E091A801F091A901E20FF31F80831B
S11300F08091A4019091A50101969093A50180930C
S1130100A4017894FF91EF919F918F915F914F910A
S11301103F912F910F900FBE0F901F9018951F9233
S11301200F920FB60F9211242F933F938F939F93A7
S1130130EF93FF93F8948091AA019091AB010196FB
S11301409093AB018093AA012091AA013091AB0155
S11301508091AC019091AD012817390760F480912A
S1130160AA019091AB01E091AE01F091AF01E80FCB
S1130170F91F80818CB97894FF91EF919F918F91B1
S11301803F912F910F900FBE0F901F901895FC0177
S1130190808180BD818189B982818BB983818AB94B
S11301A0848180BD08959093AF018093AE017093D4
S11301B0AD016093AC011092AB011092AA015D9B5A
S11301C0FECFFC0180818CB908959093A90180939E
S11301D0A8017093A7016093A6011092A501109243
S11301E0A40108954091AA015091AB012091AC0162
S11301F03091AD0181E04217530708F480E008957F
S11302004091A4015091A5012091A6013091A7012C
S113021081E04217530708F480E008958F929F927B
S1130220AF92BF92FF920F931F93CF93DF93CDB7FB
S1130230DEB72E970FB6F894DEBF0FBECDBFF82EF3
S113024070E080E090E00E9486069B01AC0160E0D3
S113025070E080E89FE30E94E50569837A838B83DD
S11302609C8382E090E09E838D8389809A80AB801A
S1130270BC806D817E81072E000C880B990B0E9437
S113028088069B01AC01C501B4010E94E5056F839A
S1130290788789879A876F81788589859A8520E010
S11302A034E244E759E40E94140723E333E343E1CF
S11302B050E40E94E5056B877C878D879E876B855C
S11302C07C858D859E850E9457068B019C014FEF8E
S11302D0F49EC00111246FEF70E00E94810768BB97
S11302E080E090E0DC0107C042E04A95F1F700C0ED
S11302F00196A11DB11D80179107A207B307A0F3B2
S113030018BA80E090E0DC0107C042E04A95F1F7BA
S113031000C00196A11DB11D80179107A207B30764
S1130320A0F32E960FB6F894DEBF0FBECDBFDF91BB
S1130330CF911F910F91FF90BF90AF909F908F909E
S113034008958F929F92AF92BF92FF920F931F9343
S1130350CF93DF93CDB7DEB72E970FB6F894DEBFF9
S11303600FBECDBFF82E70E080E090E00E948606BC
S11303709B01AC0160E070E080E89FE30E94E5052A
S113038069837A838B839C8386E090E09E838D834C
S113039089809A80AB80BC806D817E81072E000CA1
S11303A0880B990B0E9488069B01AC01C501B4011E
S11303B00E94E5056F83788789879A876F8178859E
S11303C089859A8520E034E244E759E40E941407C1
S11303D023E333E343E150E40E94E5056B877C8724
S11303E08D879E876B857C858D859E850E945706AB
S11303F08B019C0118BA80E090E0DC0107C042E068
S11304004A95F1F700C00196A11DB11D801791070F
S1130410A207B307A0F3EF2DF0E043E34E9FC00122
S11304204F9F900D11246FEF70E00E94810768BB0D
S113043040E050E0BA0108C082E08A95F1F700C0BC
S11304404F5F5F4F6F4F7F4F40175107620773072E
S113045098F346E64E9FC0014F9F900D11246FEF15
S113046070E00E94810768BB40E050E0BA0108C018
S113047082E08A95F1F700C04F5F5F4F6F4F7F4F67
S1130480401751076207730798F349E94E9FC0016B
S11304904F9F900D11246FEF70E00E94810768BB9D
S11304A040E050E0BA0108C082E08A95F1F700C04C
S11304B04F5F5F4F6F4F7F4F4017510762077307BE
S11304C098F34CEC4E9FC0014F9F900D11246FEF99
S11304D070E00E94810768BB40E050E0BA0108C0A8
S11304E082E08A95F1F700C04F5F5F4F6F4F7F4FF7
S11304F0401751076207730798F34FEF4E9FC001EF
S11305004F9F900D11246FEF70E00E94810768BB2C
S113051080E090E0DC0107C042E04A95F1F700C0BA
S11305200196A11DB11D80179107A207B307A0F37F
S11305302E960FB6F894DEBF0FBECDBFDF91CF91DC
S11305401F910F91FF90BF90AF909F908F9008954F
S11305508F929F92AF92BF92FF920F931F93CF936C
S1130560DF93CDB7DEB72E970FB6F894DEBF0FBE7C
S1130570CDBFF82E70E080E090E00E9486069B01DB
S1130580AC0160E070E080E89FE30E94E5056983C8
S11305907A838B839C8388E690E09E838D83898015
S11305A09A80AB80BC806D817E81072E000C880B05
S11305B0990B0E9488069B01AC01C501B4010E94FD
S11305C0E5056F83788789879A876F817885898520
S11305D09A8520E034E244E759E40E94140720E0BD
S11305E030E040E251E40E94E5056B877C878D870B
S11305F09E876B857C858D859E850E9457068B0121
S11306009C01E0E0F0E01DC0DF01A05ABF4F8C91D7
S1130610F89EC00111246FEF70E00E94810768BB4F
S113062080E090E0DC0107C042E04A95F1F700C0A9
S11306300196A11DB11D80179107A207B307A0F36E
S11306403196E836F10504F32E960FB6F894DEBF22
S11306500FBECDBFDF91CF911F910F91FF90BF903F
S1130660AF909F908F9008951F93CF93DF9300D006
S113067000D0CDB7DEB7182F70E080E090E00E9484
S113068086069B01AC0160E070E88AE494E40E9471
S1130690E5050E94570669837A838B839C8320E057
S11306A030E022C0F901E15DFE4F8081189FC00156
S11306B011246FEF70E00E94810768BB80E090E036
S11306C0DC0107C042E04A95F1F700C00196A11D84
S11306D0B11D49815A816B817C8184179507A607D6
S11306E0B70780F32F5F3F4F24363105DCF20F90BC
S11306F00F900F900F90DF91CF911F9108958F92DB
S11307009F92AF92BF92FF920F931F93CF93DF9369
S1130710CDB7DEB72E970FB6F894DEBF0FBECDBFB0
S1130720F82E70E080E090E00E9486069B01AC0108
S113073060E070E080E89FE30E94E50569837A83C6
S11307408B839C8383E390E09E838D8389809A804E
S1130750AB80BC806D817E81072E000C880B990BC9
S11307600E9488069B01AC01C501B4010E94E50505
S11307706F83788789879A876F81788589859A8539
S113078020E034E244E759E40E94140723E333E30E
S113079043E750E40E94E5056B877C878D879E873D
S11307A06B857C858D859E850E9457068B019C01F7
S11307B0E0E0F0E01DC0DF01A450BF4F8C91F89E33
S11307C0C00111246FEF70E00E94810768BB80E0D4
S11307D090E0DC0107C042E04A95F1F700C00196C1
S11307E0A11DB11D80179107A207B307A0F331968D
S11307F0E333F10504F32E960FB6F894DEBF0FBE73
S1130800CDBFDF91CF911F910F91FF90BF90AF901B
S11308109F908F9008958F929F92AF92BF92FF9274
S11308200F931F93CF93DF93CDB7DEB72E970FB6F9
S1130830F894DEBF0FBECDBFF82E70E080E090E0EC
S11308400E9486069B01AC0160E070E080E89FE3B3
S11308500E94E50569837A838B839C8383E390E01C
S11308609E838D8389809A80AB80BC806D817E81DC
S1130870072E000C880B990B0E9488069B01AC0183
S1130880C501B4010E94E5056F83788789879A873B
S11308906F81788589859A8520E034E244E759E4BC
S11308A00E94140723E333E343E750E40E94E50581
S11308B06B877C878D879E876B857C858D859E85E0
S11308C00E9457068B019C01E0E0F0E01DC0DF01AF
S11308D0A853BF4F8C91F89EC00111246FEF70E0B4
S11308E00E94810768BB80E090E0DC0107C042E021
S11308F04A95F1F700C00196A11DB11D801791071B
S1130900A207B307A0F33196E333F10504F32E965F
S11309100FB6F894DEBF0FBECDBFDF91CF911F910C
S11309200F91FF90BF90AF909F908F900895CF93B9
S1130930DF9300D000D01F92CDB7DEB783E38A8364
S113094019821B8288ED8C8386E88D83CE01019603
S11309500E94C70080E006C0E82FF0E0ED53FE4F90
S113096010828F5F8930C0F3E7EBF1E08EE091E015
S11309709183808381EA91E09383828388EA92E081
S11309809583848384E393E0978386838FE793E05E
S1130990918780878BE094E09387828781E08093BE
S11309A0B6018FEF87BB0F900F900F900F900F90B1
S11309B0DF91CF910895CF93DF9300D01F92CDB7ED
S11309C0DEB78091B601882309F482C0813009F032
S11309D0F6C061E070E085E991E00E94D3000E94D6
S11309E0F2008823E1F38091B2019091B301892B45
S11309F081F469E070E083EC91E00E94E50081E01D
S1130A0090E09093B3018093B2010E940001882387
S1130A10E1F38091C301803409F047C08091CB0198
S1130A208B3389F080E042C0822F90E0FC01EB53CD
S1130A30FE4F3081E1E0F0E0EC0FFD1FE80FF91FFD
S1130A4030832F5F01C020E0233070F3CE01019684
S1130A500E94A9078093B50120E00EC0822F90E088
S1130A60FC01E853FE4F3081E1E0F0E0EC0FFD1FA4
S1130A70E80FF91F30832F5F233080F3CE010196F6
S1130A800E94A9078093B4018091C401805380938C
S1130A9093011092B1011092B0010AC0E82FF0E066
S1130AA0ED53FE4F10828F5F01C080E08930B0F3B8
S1130AB069E070E083EC91E00E94E50062E070E0A0
S1130AC084E991E00E94D3000E94F2008823E1F3BC
S1130AD0E0919301E63068F4F0E0EE0FFF1FE95473
S1130AE0FE4F0190F081E02D6091B4018091B50139
S1130AF009958091B0019091B101892B09F057C0FB
S1130B0080919301823011F128F4882349F08130D7
S1130B1091F047C0843081F120F18530C1F141C0AA
S1130B2061E070E087E991E00E94D3000E94F20046
S1130B308823E1F336C061E070E089E991E00E9426
S1130B40D3000E94F2008823E1F32BC061E070E03F
S1130B508BE991E00E94D3000E94F2008823E1F324
S1130B6020C061E070E08DE991E00E94D3000E9412
S1130B70F2008823E1F315C061E070E08FE991E0B1
S1130B800E94D3000E94F2008823E1F30AC061E0CE
S1130B9070E081EA91E00E94D3000E94F200882371
S1130BA0E1F381E090E09093B1018093B0010E9461
S1130BB0000191E0813009F090E09093B6010F902C
S1130BC00F900F90DF91CF9108950E94F9050C9436
S1130BD0DA060E94D30658F00E94CC0640F029F4AD
S1130BE05F3F29F00C94C30651110C940E070C942A
S1130BF0C9060E94EB0668F39923B1F3552391F3D8
S1130C00951B550BBB27AA2762177307840738F077
S1130C109F5F5F4F220F331F441FAA1FA9F335D0D4
S1130C200E2E3AF0E0E832D091505040E695001C88
S1130C30CAF72BD0FE2F29D0660F771F881FBB1F42
S1130C40261737074807AB07B0E809F0BB0B802D20
S1130C50BF01FF2793585F4F3AF09E3F510578F04C
S1130C600C94C3060C940E075F3FE4F3983ED4F350
S1130C70869577956795B795F7959F5FC9F7880F20
S1130C80911D9695879597F90895E1E0660F771F72
S1130C90881FBB1F621773078407BA0720F0621B03
S1130CA0730B840BBA0BEE1F88F7E09508950E942E
S1130CB0F30688F09F5798F0B92F9927B751B0F0F1
S1130CC0E1F0660F771F881F991F1AF0BA95C9F7CC
S1130CD014C0B13091F00E940D07B1E008950C9456
S1130CE00D07672F782F8827B85F39F0B93FCCF309
S1130CF0869577956795B395D9F73EF49095809549
S1130D00709561957F4F8F4F9F4F0895E89409C068
S1130D1097FB3EF490958095709561957F4F8F4F2A
S1130D209F4F9923A9F0F92F96E9BB279395F69540
S1130D30879577956795B795F111F8CFFAF4BB0FBE
S1130D4011F460FF1BC06F5F7F4F8F4F9F4F16C022
S1130D50882311F096E911C0772321F09EE8872FAC
S1130D60762F05C0662371F096E8862F70E060E068
S1130D702AF09A95660F771F881FDAF7880F9695E1
S1130D80879597F9089597F99F6780E870E060E088
S1130D9008959FEF80EC089500240A941616170610
S1130DA018060906089500240A9412161306140658
S1130DB005060895092E0394000C11F4882352F0BB
S1130DC0BB0F40F4BF2B11F460FF04C06F5F7F4F73
S1130DD08F4F9F4F089557FD9058440F551F59F05A
S1130DE05F3F71F04795880F97FB991F61F09F3F14
S1130DF079F087950895121613061406551FF2CF3D
S1130E004695F1DF08C0161617061806991FF1CF8C
S1130E1086957105610508940895E894BB276627B3
S1130E207727CB0197F908950E9427070C94DA06D7
S1130E300E94CC0638F00E94D30620F0952311F0CE
S1130E400C94C3060C94C90611240C940E070E943A
S1130E50EB0670F3959FC1F3950F50E0551F629F09
S1130E60F001729FBB27F00DB11D639FAA27F00DFF
S1130E70B11DAA1F649F6627B00DA11D661F829F26
S1130E802227B00DA11D621F739FB00DA11D621F0B
S1130E90839FA00D611D221F749F3327A00D611D28
S1130EA0231F849F600D211D822F762F6A2F11240A
S1130EB09F5750409AF0F1F088234AF0EE0FFF1F3D
S1130EC0BB1F661F771F881F91505040A9F79E3F94
S1130ED0510580F00C94C3060C940E075F3FE4F3B5
S1130EE0983ED4F3869577956795B795F795E795EA
S1130EF09F5FC1F7FE2B880F911D9695879597F9F3
S1130F00089597FB072E16F4009407D077FD09D0B7
S1130F100E94950707FC05D03EF4909581959F4F5C
S1130F200895709561957F4F0895AA1BBB1B51E1ED
S1130F3007C0AA1FBB1FA617B70710F0A61BB70B45
S1130F40881F991F5A95A9F780959095BC01CD01EA
S1130F500895FC0188279927E89421912032E9F328
S1130F60293010F02E30C8F32B3241F02D3239F4F1
S1130F70689404C00E94C707820F911D21912053D9
S1130F802A30C0F31EF4909581959F4F08957AE01E
S1130F90979F902D879F802D910D11240895F8948B
S1050FA0FFCF7D
S1130FA200050A0F14191E23282D32373C41464BE3
S1130FB250555A5F64696E73787D82878C91969BD3
S1130FC2A0A5AAAFB4B9BEC3C8CDD2D7DCE1E6EBC3
S1130FD2F0F5FAFFFFFAF5F0EBE6E1DCD7D2CDC883
S1130FE2C3BEB9B4AFAAA5A09B96918C87827D7823
S1130FF2736E69645F5A55504B46413C37322D2813
S1131002231E19140F0A0500FFFAF5F0EBE6E1DCE2
S1131012D7D2CDC8C3BEB9B4AFAAA5A09B96918CB2
S113102287827D78736E69645F5A55504B46413CA2
S113103237322D28231E19140F0A050000050A0F42
S113104214191E23282D32373C41464B50555A5F02
S113105264696E73787D82878C91969BA0A5AAAFF2
S1131062B4B9BEC3C8CDD2D7DCE1E6EBF0F5FA8061
S1131072888F979FA7AEB6BDC4CAD1D7DCE2E7EB8F
S1131082EFF3F6F9FBFDFEFFFFFFFEFDFBF9F6F3BE
S1131092EFEBE7E2DCD7D1CAC4BDB6AEA79F978F08
S11310A2888077706860585149423B352E28231D49
S11310B21814100C090604020100000001020406BF
S11310C2090C1014181D23282E353B42495158602F
S11310D2687077060D3E0030003100320033003470
S10710E200350000D1
S9030000FC
